:04000000A5EF14F064
:102938002C6E2CC06FFF6E50E00B2C18D8B4120010
:10294800FAD7466A00EE01F02B0EEE6AE806FDE1C2
:10295800000EF86E000155EF15F0010E2C6E0F01F8
:1029680040A708D00F0130A705D00F0120A702D03B
:10297800000E2C6E2C501200B1EC14F00009D8B4E3
:102988001200060E2C6E000E2D6E000E2E6E000E1E
:102998002F6E240E306E000E316E080E326EBF0E92
:1029A800336E0AEC18F0469082680EEC15F0000EB3
:1029B800826E0EEC15F01200060E3A6E050E3B6E96
:1029C800010E3C6E030E3D6E9D0E3E6E040EC7EC6E
:1029D80015F0D08EF292F298A492A490A382A380CC
:1029E800A592A590F28EF28CF18C000E896EFE0EE7
:1029F800926E000E8A6EFB0E936E000E8B6E000EAA
:102A0800946E000E8C6E0F0E956E000E8D6E000E7D
:102A1800966E1200340E2C6EF20EE82EFED72C2E77
:102A2800FCD7340E2C6EF20EE82EFED72C2EFCD7D7
:102A3800340E2C6EF20EE82EFED72C2EFCD7340E58
:102A48002C6EF20EE82EFED72C2EFCD7340E2C6EF0
:102A5800F20EE82EFED72C2EFCD7340E2C6EF20E7A
:102A6800E82EFED72C2EFCD7340E2C6EF20EE82E54
:102A7800FED72C2EFCD7340E2C6EF20EE82EFED785
:102A88002C2EFCD7340E2C6EF20EE82EFED72C2EF0
:102A9800FCD7340E2C6EF20EE82EFED72C2EFCD767
:102AA8001200E0EC14F082680EEC15F0000E826E55
:102AB8000EEC15F0000E246E82680EEC15F0000E78
:102AC800826E0EEC15F082680EEC15F0000E826E28
:102AD800C0EC14F00EEC15F00EEC15F00EEC15F041
:102AE8000EEC15F00EEC15F00EEC15F00EEC15F0E2
:102AF8000EEC15F00EEC15F00EEC15F00EEC15F0D2
:102B08000EEC15F00EEC15F00EEC15F00EEC15F0C1
:102B18000EEC15F00EEC15F00EEC15F0100E246E00
:102B280082680EEC15F0000E826E0EEC15F08268CD
:102B38000EEC15F0000E826EC0EC14F00EEC15F0E1
:102B48000EEC15F00EEC15F00EEC15F00EEC15F081
:102B58000EEC15F00EEC15F00EEC15F00EEC15F071
:102B68000EEC15F00EEC15F00EEC15F00EEC15F061
:102B78000EEC15F00EEC15F00EEC15F00EEC15F051
:102B88000EEC15F097D7436E800E9CEC14F0000EF7
:102B9800706E000E716E000E726E3C40E842C00B03
:102BA8003C6E3C5070123D507012435071123A38CE
:102BB800E842F80B3A6E3A5071123EA4718C3EB05E
:102BC800718E3B5072123EB2728C3E50600B606E3A
:102BD8003E50100BFF0AD8B4608460CF50FF000E3F
:102BE8002C6E000E2D6E000E2E6E000E2F6EF70E40
:102BF800306E010E82EC16F0000E2C6E000E2D6E5B
:102C0800000E2E6E000E2F6EF70E306E020E82EC46
:102C180016F00AD0F70E446E04D0446845681CD0FC
:102C28004468F70E456E18D09F0E3F6EFF0E406E3B
:102C38003E50600B416E426A3F5041124050421272
:102C48004250000AD8A4ECD74150BF0AD8B4E5D7FF
:102C5800600AD8B4DFD7E4D7000E2C6E000E2D6EB4
:102C6800000E2E6E000E2F6E44C030F0000E52EC97
:102C78001BF0000E2C6E000E2D6E000E2E6E000E38
:102C88002F6E44C030F0010E52EC1BF0000E2C6E7B
:102C9800000E2D6E000E2E6E000E2F6E45C030F009
:102CA800020E52EC1BF0000E2C6E000E2D6E000E64
:102CB8002E6E000E2F6E45C030F0030E52EC1BF046
:102CC800000E2C6E000E2D6E000E2E6E000E2F6E56
:102CD80045C030F0040E52EC1BF0000E2C6E000EB6
:102CE8002D6E000E2E6E000E2F6E45C030F0050EB4
:102CF80052EC1BF0000E9CEC14F01200356E3504FB
:102D0800D8A449D03028D8A446D02CC031F02DC042
:102D180032F02EC033F02FC034F0040E05D0D89016
:102D28003432333232323132E82EF9D731C036F00C
:102D380032C037F033C038F034C039F03650366E10
:102D4800376A386A396A36C018FF070E2C14366E8F
:102D5800000E2D14376E000E2E14386E000E2F1430
:102D6800396E36C031F037C032F038C033F039C070
:102D780034F0050ED8903136323633363436E82EF4
:102D8800F9D731C036F032C037F033C038F034C02C
:102D980039F036C019FF020E3518D8A449D03028AA
:102DA800D8A446D02CC031F02DC032F02EC033F05C
:102DB8002FC034F0040E05D0D8903432333232327A
:102DC8003132E82EF9D731C036F032C037F033C08F
:102DD80038F034C039F03650366E376A386A396A96
:102DE80036C01CFF070E2C14366E000E2D14376EDD
:102DF800000E2E14386E000E2F14396E36C031F0C6
:102E080037C032F038C033F039C034F0050ED890EE
:102E18003136323633363436E82EF9D731C036F00B
:102E280032C037F033C038F034C039F036C01DFF37
:102E38003504D8A473D0F70E3018D8A46FD02C500E
:102E4800366E376A386A396A36C01BFF000E2C1492
:102E5800366EFF0E2D14376E000E2E14386E000ECF
:102E68002F14396E36C031F037C032F038C033F025
:102E780039C034F032C031F033C032F034C033F0EE
:102E8800346A31C036F032C037F033C038F034C05D
:102E980039F036C01AFF2EA003D00F01198102D0D5
:102EA8000F0119912EA203D00F01198302D00F012F
:102EB80019932EA403D00F01198B02D00F01199B6F
:102EC8002EA603D00F01198D02D00F01199D2EA82F
:102ED80003D00F01198F02D00F01199F2CC031F0B8
:102EE8002DC032F02EC033F02FC034F0160E05D0AE
:102EF800D8903432333232323132E82EF9D731C0F9
:102F080036F032C037F033C038F034C039F03650BC
:102F1800366E376A386A396A36C018FF020E3518B5
:102F2800D8A41200F70E3018D8A412002C50366E10
:102F3800376A386A396A36C01FFF000E2C14366E9D
:102F4800FF0E2D14376E000E2E14386E000E2F143F
:102F5800396E36C031F037C032F038C033F039C07E
:102F680034F032C031F033C032F034C033F0346A58
:102F780031C036F032C037F033C038F034C039F0E1
:102F880036C01EFF2EA003D00F011D8102D00F01F5
:102F98001D912EA203D00F011D8302D00F011D9396
:102FA8002EA403D00F011D8B02D00F011D9B2EA64E
:102FB80003D00F011D8D02D00F011D9D2EA803D037
:102FC8000F011D8F02D00F011D9F2CC031F02DC0A5
:102FD80032F02EC033F02FC034F0160E05D0D89042
:102FE8003432333232323132E82EF9D731C036F04A
:102FF80032C037F033C038F034C039F03650366E4E
:10300800376A386A396A36C01CFF12000F0140B7A8
:1030180015D132C045FF33AC03D00F01458D02D026
:103028000F01459D33A666D02C50386E396A3A6A2E
:103038003B6A38C044FF000E2C14386EFF0E2D1466
:10304800396E000E2E143A6E000E2F143B6E38C0E7
:1030580034F039C035F03AC036F03BC037F035C0EF
:1030680034F036C035F037C036F0376A34C038F03F
:1030780035C039F036C03AF037C03BF038C043FFAE
:10308800000E0F01426F0F0142872EA002D00F01E0
:1030980042812EA202D00F0142832EA402D00F013A
:1030A800428B2EA602D00F01428D2EA802D00F010E
:1030B800428F2CC034F02DC035F02EC036F02FC012
:1030C80037F0160E05D0D8903732363235323432D2
:1030D800E82EF9D734C038F035C039F036C03AF0A8
:1030E80037C03BF03850386E396A3A6A3B6A38C0A4
:1030F80041FF4DD00F0142972CC034F02DC035F060
:103108002EC036F02FC037F0040E05D0D8903732D5
:10311800363235323432E82EF9D734C038F035C07B
:1031280039F036C03AF037C03BF03850386E396A5B
:103138003A6A3B6A38C041FF070E2C14386E000EFD
:103148002D14396E000E2E143A6E000E2F143B6E9D
:1031580038C034F039C035F03AC036F03BC037F0EB
:10316800050ED8903436353636363736E82EF9D748
:1031780034C038F035C039F036C03AF037C03BF0CB
:103188000F0142511F0B0F01426F38C042FF33A09D
:1031980003D00F01408102D00F01409133A203D028
:1031A8000F01408302D00F01409330C0D9FF31C0D6
:1031B800DAFFDF500F01466F20EE01F03050D926BC
:1031C8003150DA22DF500F01476F20EE02F0305005
:1031D800D9263150DA22DF500F01486F20EE03F074
:1031E8003050D9263150DA22DF500F01496F20EED6
:1031F80004F03050D9263150DA22DF500F014A6FDF
:1032080020EE05F03050D9263150DA22DF500F0178
:103218004B6F20EE06F03050D9263150DA22DF50BD
:103228000F014C6F20EE07F03050D9263150DA22CA
:10323800DF500F014D6F0F01408712000F0130B7AB
:1032480015D132C035FF33AC03D00F01358D02D014
:103258000F01359D33A666D02C50386E396A3A6A0C
:103268003B6A38C034FF000E2C14386EFF0E2D1444
:10327800396E000E2E143A6E000E2F143B6E38C0B5
:1032880034F039C035F03AC036F03BC037F035C0BD
:1032980034F036C035F037C036F0376A34C038F00D
:1032A80035C039F036C03AF037C03BF038C033FF8C
:1032B800000E0F01326F0F0132872EA002D00F01CE
:1032C80032812EA202D00F0132832EA402D00F0128
:1032D800328B2EA602D00F01328D2EA802D00F01FC
:1032E800328F2CC034F02DC035F02EC036F02FC0F0
:1032F80037F0160E05D0D8903732363235323432A0
:10330800E82EF9D734C038F035C039F036C03AF075
:1033180037C03BF03850386E396A3A6A3B6A38C071
:1033280031FF4DD00F0132972CC034F02DC035F04D
:103338002EC036F02FC037F0040E05D0D8903732A3
:10334800363235323432E82EF9D734C038F035C049
:1033580039F036C03AF037C03BF03850386E396A29
:103368003A6A3B6A38C031FF070E2C14386E000EDB
:103378002D14396E000E2E143A6E000E2F143B6E6B
:1033880038C034F039C035F03AC036F03BC037F0B9
:10339800050ED8903436353636363736E82EF9D716
:1033A80034C038F035C039F036C03AF037C03BF099
:1033B8000F0132511F0B0F01326F38C032FF33A09B
:1033C80003D00F01308102D00F01309133A203D016
:1033D8000F01308302D00F01309330C0D9FF31C0C4
:1033E800DAFFDF500F01366F20EE01F03050D9269A
:1033F8003150DA22DF500F01376F20EE02F03050E3
:10340800D9263150DA22DF500F01386F20EE03F051
:103418003050D9263150DA22DF500F01396F20EEB3
:1034280004F03050D9263150DA22DF500F013A6FBC
:1034380020EE05F03050D9263150DA22DF500F0146
:103448003B6F20EE06F03050D9263150DA22DF509B
:103458000F013C6F20EE07F03050D9263150DA22A8
:10346800DF500F013D6F0F01308712000F0120B7A9
:10347800120032C025FF33AC03D00F01258D02D0D6
:103488000F01259D33A666D02C50386E396A3A6AEA
:103498003B6A38C024FF000E2C14386EFF0E2D1422
:1034A800396E000E2E143A6E000E2F143B6E38C083
:1034B80034F039C035F03AC036F03BC037F035C08B
:1034C80034F036C035F037C036F0376A34C038F0DB
:1034D80035C039F036C03AF037C03BF038C023FF6A
:1034E800000E0F01226F0F0122872EA002D00F01BC
:1034F80022812EA202D00F0122832EA402D00F0116
:10350800228B2EA602D00F01228D2EA802D00F01E9
:10351800228F2CC034F02DC035F02EC036F02FC0CD
:1035280037F0160E05D0D89037323632353234326D
:10353800E82EF9D734C038F035C039F036C03AF043
:1035480037C03BF03850386E396A3A6A3B6A38C03F
:1035580021FF4DD00F0122972CC034F02DC035F03B
:103568002EC036F02FC037F0040E05D0D890373271
:10357800363235323432E82EF9D734C038F035C017
:1035880039F036C03AF037C03BF03850386E396AF7
:103598003A6A3B6A38C021FF070E2C14386E000EB9
:1035A8002D14396E000E2E143A6E000E2F143B6E39
:1035B80038C034F039C035F03AC036F03BC037F087
:1035C800050ED8903436353636363736E82EF9D7E4
:1035D80034C038F035C039F036C03AF037C03BF067
:1035E8000F0122511F0B0F01226F38C022FF33A099
:1035F80003D00F01208102D00F01209133A203D004
:103608000F01208302D00F01209330C0D9FF31C0B1
:10361800DAFFDF500F01266F20EE01F03050D92677
:103628003150DA22DF500F01276F20EE02F03050C0
:10363800D9263150DA22DF500F01286F20EE03F02F
:103648003050D9263150DA22DF500F01296F20EE91
:1036580004F03050D9263150DA22DF500F012A6F9A
:1036680020EE05F03050D9263150DA22DF500F0114
:103678002B6F20EE06F03050D9263150DA22DF5079
:103688000F012C6F20EE07F03050D9263150DA2286
:10369800DF500F012D6F0F0120871200356E355056
:1036A800D8A44BD03028D8A448D00F0101972CC0FB
:1036B80031F02DC032F02EC033F02FC034F0040E9C
:1036C80005D0D8903432333232323132E82EF9D73D
:1036D80031C036F032C037F033C038F034C039F07A
:1036E8003650366E376A386A396A36C000FF070EB8
:1036F8002C14366E000E2D14376E000E2E14386EF4
:10370800000E2F14396E36C031F037C032F038C091
:1037180033F039C034F0050ED890313632363336AE
:103728003436E82EF9D731C036F032C037F033C01E
:1037380038F034C039F036C001FF3504D8A44BD076
:103748003028D8A448D00F0105972CC031F02DC0DF
:1037580032F02EC033F02FC034F0040E05D0D890CC
:103768003432333232323132E82EF9D731C036F0C2
:1037780032C037F033C038F034C039F03650366EC6
:10378800376A386A396A36C004FF070E2C14366E59
:10379800000E2D14376E000E2E14386E000E2F14E6
:1037A800396E36C031F037C032F038C033F039C026
:1037B80034F0050ED8903136323633363436E82EAA
:1037C800F9D731C036F032C037F033C038F034C0E2
:1037D80039F036C005FF020E3518D8A44BD0302872
:1037E800D8A448D00F0109972CC031F02DC032F071
:1037F8002EC033F02FC034F0040E05D0D8903432E8
:10380800333232323132E82EF9D731C036F032C095
:1038180037F033C038F034C039F03650366E376A76
:10382800386A396A36C008FF070E2C14366E000E47
:103838002D14376E000E2E14386E000E2F14396EAC
:1038480036C031F037C032F038C033F039C034F008
:10385800050ED8903136323633363436E82EF9D75D
:1038680031C036F032C037F033C038F034C039F0E8
:1038780036C009FF030E3518D8A44BD03028D8A479
:1038880048D00F010D972CC031F02DC032F02EC05A
:1038980033F02FC034F0040E05D0D89034323332D0
:1038A80032323132E82EF9D731C036F032C037F033
:1038B80033C038F034C039F03650366E376A386A5B
:1038C800396A36C00CFF070E2C14366E000E2D1404
:1038D800376E000E2E14386E000E2F14396E36C057
:1038E80031F037C032F038C033F039C034F0050E4B
:1038F800D8903136323633363436E82EF9D731C0DF
:1039080036F032C037F033C038F034C039F036C042
:103918000DFF040E3518D8A44BD03028D8A448D0B1
:103928000F0111972CC031F02DC032F02EC033F0AA
:103938002FC034F0040E05D0D890343233323232EE
:103948003132E82EF9D731C036F032C037F033C003
:1039580038F034C039F03650366E376A386A396A0A
:1039680036C010FF070E2C14366E000E2D14376E5D
:10397800000E2E14386E000E2F14396E36C031F03A
:1039880037C032F038C033F039C034F0050ED89063
:103998003136323633363436E82EF9D731C036F080
:1039A80032C037F033C038F034C039F036C011FFB8
:1039B800050E3518D8A44BD03028D8A448D00F010C
:1039C80015972CC031F02DC032F02EC033F02FC027
:1039D80034F0040E05D0D8903432333232323132DA
:1039E800E82EF9D731C036F032C037F033C038F09E
:1039F80034C039F03650366E376A386A396A36C09C
:103A080014FF070E2C14366E000E2D14376E000EA0
:103A18002E14386E000E2F14396E36C031F037C0B0
:103A280032F038C033F039C034F0050ED890313652
:103A3800323633363436E82EF9D731C036F032C054
:103A480037F033C038F034C039F036C015FF355080
:103A5800D8A475D0F70E3018D8A471D00F010187FB
:103A68002C50366E376A386A396A36C003FF000E42
:103A78002C14366EFF0E2D14376E000E2E14386E71
:103A8800000E2F14396E36C031F037C032F038C00E
:103A980033F039C034F032C031F033C032F034C0C2
:103AA80033F0346A31C036F032C037F033C038F002
:103AB80034C039F036C002FF2EA003D00F010181B7
:103AC80002D00F0101912EA203D00F01018302D071
:103AD8000F0101932EA403D00F01018B02D00F0117
:103AE800019B2EA603D00F01018D02D00F01019D6D
:103AF8002EA803D00F01018F02D00F01019F2CC007
:103B080031F02DC032F02EC033F02FC034F0160E35
:103B180005D0D8903432333232323132E82EF9D7E8
:103B280031C036F032C037F033C038F034C039F025
:103B38003650366E376A386A396A36C000FF35043F
:103B4800D8A475D0F70E3018D8A471D00F01058706
:103B58002C50366E376A386A396A36C007FF000E4D
:103B68002C14366EFF0E2D14376E000E2E14386E80
:103B7800000E2F14396E36C031F037C032F038C01D
:103B880033F039C034F032C031F033C032F034C0D1
:103B980033F0346A31C036F032C037F033C038F011
:103BA80034C039F036C006FF2EA003D00F010581BE
:103BB80002D00F0105912EA203D00F01058302D078
:103BC8000F0105932EA403D00F01058B02D00F011E
:103BD800059B2EA603D00F01058D02D00F01059D70
:103BE8002EA803D00F01058F02D00F01059F2CC00E
:103BF80031F02DC032F02EC033F02FC034F0160E45
:103C080005D0D8903432333232323132E82EF9D7F7
:103C180031C036F032C037F033C038F034C039F034
:103C28003650366E376A386A396A36C004FF020E73
:103C38003518D8A475D0F70E3018D8A471D00F0154
:103C480009872C50366E376A386A396A36C00BFFD6
:103C5800000E2C14366EFF0E2D14376E000E2E1427
:103C6800386E000E2F14396E36C031F037C032F07E
:103C780038C033F039C034F032C031F033C032F0DC
:103C880034C033F0346A31C036F032C037F033C054
:103C980038F034C039F036C00AFF2EA003D00F0127
:103CA800098102D00F0109912EA203D00F010983C7
:103CB80002D00F0109932EA403D00F01098B02D063
:103CC8000F01099B2EA603D00F01098D02D00F0109
:103CD800099D2EA803D00F01098F02D00F01099F5B
:103CE8002CC031F02DC032F02EC033F02FC034F08C
:103CF800160E05D0D8903432333232323132E82EB3
:103D0800F9D731C036F032C037F033C038F034C09C
:103D180039F03650366E376A386A396A36C008FF65
:103D2800030E3518D8A475D0F70E3018D8A471D062
:103D38000F010D872C50366E376A386A396A36C0DB
:103D48000FFF000E2C14366EFF0E2D14376E000E6A
:103D58002E14386E000E2F14396E36C031F037C06D
:103D680032F038C033F039C034F032C031F033C0EB
:103D780032F034C033F0346A31C036F032C037F034
:103D880033C038F034C039F036C00EFF2EA003D04F
:103D98000F010D8102D00F010D912EA203D00F014A
:103DA8000D8302D00F010D932EA403D00F010D8BAC
:103DB80002D00F010D9B2EA603D00F010D8D02D04E
:103DC8000F010D9D2EA803D00F010D8F02D00F01FA
:103DD8000D9F2CC031F02DC032F02EC033F02FC013
:103DE80034F0160E05D0D8903432333232323132B4
:103DF800E82EF9D731C036F032C037F033C038F08A
:103E080034C039F03650366E376A386A396A36C087
:103E18000CFF040E3518D8A475D0F70E3018D8A4A6
:103E280071D00F0111872C50366E376A386A396A9B
:103E380036C013FF000E2C14366EFF0E2D14376E8D
:103E4800000E2E14386E000E2F14396E36C031F065
:103E580037C032F038C033F039C034F032C031F0F6
:103E680033C032F034C033F0346A31C036F032C077
:103E780037F033C038F034C039F036C012FF2EA006
:103E880003D00F01118102D00F0111912EA203D08E
:103E98000F01118302D00F0111932EA403D00F013B
:103EA800118B02D00F01119B2EA603D00F01118D8B
:103EB80002D00F01119D2EA803D00F01118F02D03F
:103EC8000F01119F2CC031F02DC032F02EC033F0FD
:103ED8002FC034F0160E05D0D89034323332323237
:103EE8003132E82EF9D731C036F032C037F033C05E
:103EF80038F034C039F03650366E376A386A396A65
:103F080036C010FF050E3518D8A41200F70E301869
:103F1800D8A412000F0115872C50366E376A386AFC
:103F2800396A36C017FF000E2C14366EFF0E2D149A
:103F3800376E000E2E14386E000E2F14396E36C0F0
:103F480031F037C032F038C033F039C034F032C005
:103F580031F033C032F034C033F0346A31C036F057
:103F680032C037F033C038F034C039F036C016FFED
:103F78002EA003D00F01158102D00F0115912EA29A
:103F880003D00F01158302D00F0115932EA403D07F
:103F98000F01158B02D00F01159B2EA603D00F0120
:103FA800158D02D00F01159D2EA803D00F01158F76
:103FB80002D00F01159F2CC031F02DC032F02EC059
:103FC80033F02FC034F0160E05D0D8903432333287
:103FD80032323132E82EF9D731C036F032C037F0FC
:103FE80033C038F034C039F03650366E376A386A24
:083FF800396A36C014FF120003
:020000040030CA
:0E000000FF021F1EFF8281FF0FC00FE00F40A6
:00000001FF
